:020000040800F2
:10000000480B0020CD010008710B0008A306000872
:100010007D0A0008990200085B1800080000000033
:10002000000000000000000000000000A511000812
:100030009D020008000000003D1000083D1400086B
:10004000E7010008E7010008E7010008E7010008F0
:10005000E7010008E7010008E7010008E7010008E0
:10006000E7010008E7010008E7010008E7010008D0
:10007000E7010008E7010008E7010008E7010008C0
:10008000E7010008E7010008E7010008E7010008B0
:10009000E7010008E7010008E7010008C9020008BD
:1000A000E7010008A1140008E7010008E7010008C3
:1000B00089150008A1150008E7010008E7010008FC
:1000C000E7010008E7010008E7010008E701000870
:1000D000E7010008B9150008E7010008411600080B
:1000E000E7010008E7010008E7010008E701000850
:1000F000E7010008E7010008E7010008E701000840
:10010000E7010008E7010008E7010008E70100082F
:10011000E7010008E7010008E7010008E70100081F
:10012000E7010008E7010008E7010008E70100080F
:1001300000F002F800F03AF80AA090E8000C8244BF
:100140008344AAF10107DA4501D100F02FF8AFF29C
:10015000090EBAE80F0013F0010F18BFFB1A43F0A5
:1001600001031847F43A0000143B0000103A24BF82
:1001700078C878C1FAD8520724BF30C830C144BF0C
:1001800004680C607047000000230024002500264E
:10019000103A28BF78C1FBD8520728BF30C148BFEA
:1001A0000B6070471FB51FBD10B510BD00F046F8BD
:1001B0001146FFF7F7FF01F04BFF00F064F803B4BE
:1001C000FFF7F2FF03BC01F001FF00000948804780
:1001D00009480047FEE7FEE7FEE7FEE7FEE7FEE729
:1001E000FEE7FEE7FEE7FEE704480549054A064B41
:1001F0007047000041140008310100084805002044
:10020000480B00204807002048070020704770472F
:1002100070477047704710B500F008F8006810BDCF
:1002200010B5044600F002F8046010BD00487047A5
:10023000E804002000487047E80400207546FFF7F6
:10024000F9FFAE4605006946534620F00700854693
:1002500018B020B5FFF7C8FFBDE820404FF00006FA
:100260004FF000074FF000084FF0000B21F007019E
:10027000AC46ACE8C009ACE8C009ACE8C009ACE8E1
:10028000C0098D46704710B50446AFF30080204684
:10029000BDE81040FFF793BF00BFFEE770470000C6
:1002A0000648006806490968884203DD01200549BF
:1002B000087002E000200349087070473C000020ED
:1002C00020000020000000200448006828B92020F9
:1002D0000349086000200349087070471401214257
:1002E000140401404C00002010B51248806940F011
:1002F0000400104988611048006820F470000E491D
:1003000008600846006840F4000008600A480C30A5
:10031000006840F0200008490C31086001220521E6
:10032000002000F0E3F8022317220121184600F014
:100330004BFB10BD001002400008014010B52E48D4
:10034000C06940F001002C49C8610846806940F04E
:10035000040088612948006820F0FF0027490860F0
:100360000846006840F044000860C804008820F493
:100370004070C90408800846008B40F030000883B4
:100380000846008820F060000880002008854FF6AD
:10039000FF7088850846008940F003000881084600
:1003A000008B40F0010008830846008C20F002001A
:1003B00008840846008B40F4807008830846008C4F
:1003C00020F0200008840846808940F001008881E0
:1003D0000846808940F04000888101231C220321C7
:1003E000184600F0F1FA4FF08040008840F001001C
:1003F0004FF08041088010BD00100240000801400D
:1004000010B53748C06940F002003549C861084658
:10041000806940F0040088613248006820F07F4025
:10042000304908600846006840F0884008602E485F
:10043000008840F001002C4908800846008840F000
:100440004000088001231D220321184600F0BCFA59
:10045000002025491C3108804FF6FF70091D0880D7
:1004600021480C38008820F440701F490C3908805E
:100470000846008820F0600008801B480C30008887
:1004800040F0010018490C3108800846008840F40B
:100490008070088014481430008820F0020012494F
:1004A000143108800846008820F0200008800E489B
:1004B0000C30008840F030000B490C3108800A48AD
:1004C000001F008840F003000749091F0880064804
:1004D0000C38008840F0010003490C39088010BD39
:1004E00000100240000801400C04004070B50446B2
:1004F0000B46CE1701EB9676C6F38700CE1701EBBD
:100500009676B610A1EB8606B606350E1C4B9B6997
:1005100043F001031A4EB3614FEAB63353F820306B
:100520000F26AE40B343174E46F82030334653F8FB
:10053000203004FA05F61E43124B43F82060124B9C
:100540001B6801268E4033430F4E336002F00103D7
:1005500043B10D4B0C331B6801268E4033430A4ECA
:100560000C36336002F0020343B1074B08331E68B8
:1005700001238B401E43044B08331E6070BD0000F6
:100580000010024008000140000401402DE9F04144
:10059000024600250026002000230024002791F8B1
:1005A00003C00CF00F0591F803C00CF0100CBCF167
:1005B000000F03D091F802C04CEA050591F800C085
:1005C000BCF1000F31D0146800202BE04FF0010C7B
:1005D0000CFA00F3B1F800C00CEA03069E4220D1E9
:1005E00083004FF00F0C0CFA03F7BC4305FA03FC31
:1005F0004CEA040491F803C0BCF1280F06D14FF077
:10060000010C0CFA00FCC2F814C00AE091F803C017
:10061000BCF1480F05D14FF0010C0CFA00FCC2F8F8
:1006200010C0401C0828D1D31460B1F800C0BCF140
:10063000FF0F34DD546800202EE000F1080C4FF06D
:10064000010808FA0CF3B1F800C00CEA03069E4258
:1006500021D183004FF00F0C0CFA03F7BC4305FACD
:1006600003FC4CEA040491F803C0BCF1280F05D147
:1006700000F1080C08FA0CF8C2F8148091F803C0D5
:10068000BCF1480F07D100F1080C4FF0010808FA3F
:100690000CF8C2F81080401C0828CED35460BDE886
:1006A000F08100BFFEE700002DE9F05F04460D4633
:1006B000281B1A4908600846006802F035FB83468B
:1006C00017480168584602F047FB804613490968FD
:1006D000144A1268881A02F027FB83461248016800
:1006E000584602F039FB8146414602F09FFA074620
:1006F0000E48006802F018FB8246394602F096FA6E
:10070000064602F0F5FA0949086004480068054900
:10071000086006480068BDE8F09F000074000020F3
:10072000100000207C0000200C0000207800002039
:100730002DE9F05F04460D46281B1A49086008465B
:10074000006802F0F1FA834617480168584602F043
:1007500003FB804613490968144A1268881A02F09C
:10076000E3FA834612480168584602F0F5FA8146DA
:10077000414602F05BFA07460E48006802F0D4FAE0
:100780008246394602F052FA064602F0B1FA0949A9
:100790000860044800680549086006480068BDE82C
:1007A000F09F000080000020100000208800002042
:1007B0000C000020840000202DE9F04704460D467F
:1007C000661B304602F0B0FA81460648016848468A
:1007D00002F0C2FA804602F08BFA07463846BDE8BE
:1007E000F08700001400002001464906084A92697B
:1007F00042F00102064B9A61064A526822F0E0621A
:10080000044B5A601A4652680A435A607047000007
:1008100000100240000001400C48806940F00400D4
:100820000A4988610A48006820F470000849086095
:100830000846006840F40000086005480C30006875
:1008400040F0200002490C3108607047001002405F
:10085000000801402DE9F04F8BB083468A46504690
:1008600002F0B8F9CDE9000101F0A4FC80464FF098
:100870006042334B01F0BAFF064600224FF080433E
:1008800001F002FE4FF060422E4BCDE9020101F073
:10089000FBFD00222C4BCDE9040101F045FDCDE923
:1008A0000801584602F096F9CDE90601DDE9082372
:1008B00001F09CFF044601F03FFF244908605046C8
:1008C00002F088F9CDE9000101F074FC4FF06042BC
:1008D0001B4BCDE9020101F089FF00224FF080435C
:1008E000CDE9040101F0D0FD4FF06042154BCDE998
:1008F000060101F0C9FD06460022134B02F074F810
:1009000080468946584602F065F9044642464B4601
:1009100001F06CFFCDE9080101F00EFF0C49086001
:100920000C49504602F018FA05460B4902F07EF9D0
:10093000044602F0DDF9094908600BB0BDE8F08F0C
:10094000CEF7C33FF97EC23F0000F03F30000020E9
:100950003400002033B31B440080BB442C00002033
:1009600000B5002015490861C860142048610020C6
:100970008861C8610846006840F0010008600846C8
:1009800040680F4908400D494860084600680D4915
:1009900008400A4908600846006820F48020086082
:1009A0000846406820F4FE0048600020886000216E
:1009B0004FF0006000F058F800BD00000010024049
:1009C0000000FFF8FFFFF6FE2DE9F04107468846DC
:1009D00014461D46284600F033F8C5F1040007FA16
:1009E00000F60F20284100EA0800064306F00F0633
:1009F000E21704EBD2625211920002F1E022D2F827
:100A000000212146E31704EBD3635B11A4EB431CE5
:100A1000012303FA0CF31A432046E31704EBD363D4
:100A20005B119B0003F1E023C3F800210348005D44
:100A300040EA061001490855BDE8F08100E400E0F5
:100A40000146072323EA01021202054B18684FF6FC
:100A5000FF031840034B18431043014B18607047C5
:100A60000CED00E00000FA05024A0A400243024B86
:100A70001A60704780FFFF1F08ED00E000BFFEE72F
:100A8000384AD26942F00402364BDA611A4692695A
:100A900042F008029A61344A126822F07F42324BD7
:100AA0001A601A46126842F03B421A601A1D126818
:100AB00022F0FF021B1D1A601A46126842F0BB02A8
:100AC0001A602A4A1080121F1180284A143A12888C
:100AD00042F06002254B143B1A801A46128842F4F9
:100AE000C0421A801A1D128842F060021B1D1A8033
:100AF0001A46128842F4C0421A801A1F128842F025
:100B000008021B1F1A801A46128842F400621A80DB
:100B10001A1D128842F008021B1D1A801A461288FC
:100B200042F400621A801A1D128842F001021B1D55
:100B30001A801A46128842F010021A801A46128849
:100B400042F480721A801A46128842F480521A8047
:100B50008022064B2C3B1A801A46128842F0010272
:100B60001A80704700100240000C01402C08004021
:100B7000704708B54FF4A06000F054F826208DF8B7
:100B8000000001208DF801008DF802008DF80300AF
:100B9000684600F00FF827208DF8000001208DF83E
:100BA00001008DF802008DF80300684600F002F89D
:100BB00008BD000070B5002100230F22C47804B3E3
:100BC000154C246804F4E064C4F5E064210AC1F122
:100BD0000403CA40447804FA03F1847814402143A2
:100BE00009010E4C0678A155047804F01F05012474
:100BF000AC4005786D11AD0005F1E025C5F8004168
:100C000009E0047804F01F050124AC40044D067887
:100C1000761145F8264070BD0CED00E000E400E0E0
:100C200080E100E002490143024A11607047000080
:100C30000000FA050CED00E030B500240CE00025C2
:100C400006E00020074901EBC5010855681CC5B244
:100C5000802DF6DB601CC4B2082CF0DB00F0DCF861
:100C600030BD0000E8000020F0B5144600267F28C3
:100C700001DC3F2900DDF0BD0B46CF1701EB5777B4
:100C8000FF10C7F10707FAB2CF1701EB5777FF1034
:100C9000A1EBC707FDB2C5F107070123BB40DEB2D8
:100CA0004CB10A4B03EBC0039B5C3343074F07EB8C
:100CB000C007BB5408E0054B03EBC0039B5CB34388
:100CC000024F07EBC007BB5400BFD4E7E800002089
:100CD00010B54A48806940F0080048498861484892
:100CE0000068484908404649086008460068464987
:100CF0000843434908604148806940F004003F4987
:100D000088614248006820F0704040490860084609
:100D1000006840F00050086000203D4908606420F1
:100D200001F078F901203B49C1F88C010021AE2087
:100D300000F058F90021D52000F054F9002150208E
:100D400000F050F90021A82000F04CF900213F20CC
:100D500000F048F90021D32000F044F900210846B2
:100D600000F040F90021402000F03CF900218D20E6
:100D700000F038F90021142000F034F9002120207F
:100D800000F030F90021022000F02CF90021A12010
:100D900000F028F90021C02000F024F90021DA2019
:100DA00000F020F90021122000F01CF90021812020
:100DB00000F018F90021EF2000F014F90021D920EB
:100DC00000F010F90021F12000F00CF90021DB20E7
:100DD00000F008F90021302000F004F90021A420DF
:100DE00000F000F90021A62000F0FCF80021AF205F
:100DF00000F0F8F8FFF720FF10BD000000100240DF
:100E0000000C0140FF0F00FF0020220004080140F9
:100E10008C8121420080214230B500241CE004F185
:100E2000B001C8B2002100F0DDF80021084600F052
:100E3000D9F80021102000F0D5F8002508E0084975
:100E400001EBC501085D012100F0CCF8681CC5B2BA
:100E5000802DF4DB601CC4B2082CE0DB30BD000048
:100E6000E80000202DE9F04F80460C4615461E464E
:100E7000A346A5F12000C5B200273EE00C2E07D105
:100E800005EB45001F4901EB800010F8079004E0D6
:100E90001D4800EB051010F807904FF0000A26E0FF
:100EA00009F0800028B121464046099AFFF7DCFE90
:100EB00009E0099808B9012000E000200246214617
:100EC0004046FFF7D1FE4FEA49604FEA1069601CC7
:100ED000C4B2A4EB0B00B04205D15C4608F101009E
:100EE00000F0FF0806E00AF1010000F0FF0ABAF185
:100EF000080FD5DB00BF781CC7B2B742BEDBBDE828
:100F0000F08F0000CA3000083E3500082DE9FF4F81
:100F100081B0074691461E460E9D4FF0000A002400
:100F200039E0301B401EC1B20A2001F0C5F8B9FB00
:100F3000F0F00A21B0FBF1F201FB1208BAF1000F48
:100F400016D1701EA04213DDB8F1000F0ED10120A2
:100F5000AB4605EBDB71491001FB04710090C8B290
:100F60002B4620220299FFF77DFF12E04FF0010A85
:100F70000120AB4605EBDB71491001FB04710090C9
:100F8000C8B208F13001CAB22B460299FFF76AFFD6
:100F900000BF601CC4B2B442C3DB05B0BDE8F08F33
:100FA00078B505460E46144618E07A2D03DD002577
:100FB00006F11000C6B23A2E04DD002005460646B2
:100FC000FFF73AFE0120009022780C233146284694
:100FD000FFF748FF05F10800C5B2641C207800281F
:100FE000E3D178BD10B50A461AB10123114C236034
:100FF00002E000230F4C2360002114E000230E4C7C
:10100000236000F080031BB10123241F236003E051
:101010000023094C241F23600123074C236043064F
:10102000180E4B1CD9B20829E8DB0123014C2360C0
:1010300010BD0000BC012142948121427047000094
:1010400029B1064AD2690243044BDA6104E0034A3B
:10105000D2698243014BDA61704700000010024000
:1010600029B1064A92690243044B9A6104E0034A9B
:1010700092698243014B9A61704700000010024060
:1010800030B500210022002400232D4D6D6805F0AD
:101090000C0121B1042905D0082923D105E0294DEF
:1010A000056022E0274D05601FE0254D6D6805F4C1
:1010B0007012234D6D6805F48034022505EB9242D1
:1010C0001CB9214D554305600BE01D4D6D6805F4BD
:1010D00000351DB11C4D5543056002E0194D5543C7
:1010E000056002E0174D056000BF00BF144D6D683C
:1010F00005F0F0010909154D6B5C0568DD404560A0
:101100000F4D6D6805F4E061090A104D6B5C456890
:10111000DD4085600A4D6D6805F46051C90A0B4DCC
:101120006B5C4568DD40C560054D6D6805F4404168
:10113000890B074D6B5CC568B5FBF3F5056130BDE8
:101140000010024000127A0000093D005D000020FE
:101150006D0000200146022904D003290BD0042988
:1011600017D10FE04FF08042928C10B200224FF066
:1011700080439A840FE0094A128810B20022074B7C
:101180001A8008E0064A128810B20022044B1A8026
:1011900001E0002000BF00BF7047000024040040B1
:1011A000240800407047000070B505460C462A48E8
:1011B000806940F40060284988610846806940F0F1
:1011C000040088612548006820F4704023490860C5
:1011D0000846006840F43040086021480580001F40
:1011E00004801F481038008840F4C0401C49103962
:1011F00008800846008840F400600880081D0088C8
:1012000040F48050091D088015481830008840F4CB
:101210000040134918310880802011492C3908807A
:101220000F482038008840F001000D49203908801F
:1012300040F2DC500A491431088009482C380088F3
:1012400040F0010006492C390880022319220121AF
:101250000846FFF7B9FB70BD0010024004080140CA
:101260002C2C014010B500F001F810BD0CB5002089
:10127000019000903348006840F4803031490860A4
:1012800000BF3048006800F4003000900198401C16
:101290000190009818B90198B0F5A06FF1D12948D4
:1012A000006800F4003010B10120009001E000203F
:1012B00000900098012843D12348006840F01000B6
:1012C000214908600846006820F0030008600846CD
:1012D000006840F0020008601A48406819494860F8
:1012E0000846406848600846406840F480604860AE
:1012F0000846406820F47C1048600846406840F486
:10130000E81048600846006840F08070086000BF40
:101310000C48006800F000700028F9D009484068C7
:1013200020F00300074948600846406840F002008A
:10133000486000BF0348406800F00C000828F9D15D
:101340000CBD0000001002400020024010B5002833
:1013500008DA4FF4E153134C238000F5E153241DC8
:10136000238007E0C0F5E1530E4C23804FF4E15396
:10137000241D2380002909DA4FF4E153094C083475
:10138000238001F5E153241D238008E0C1F5E153DA
:10139000044C083423804FF4E153241D2380024C75
:1013A000228010BD34080040402C014030B5044676
:1013B0000025FFF7D5FA1F48006840F480301D492A
:1013C000086000BF1B480068400C0028FAD04FF4AA
:1013D000806018494860A01EC4B20846406840EAD0
:1013E000844048600846406840F4803048601248B5
:1013F000006840F03200104908600E48006840F074
:1014000080700C49086000BF0A480068400E002840
:10141000FAD00848406840F002000649486005E0FC
:1014200004484068C0F3870505F00305022DF7D195
:1014300030BD000000100240002002407047000054
:1014400010B51348006840F00100114908600846D3
:101450004068104908400E494860084600680E4937
:1014600008400B4908600846006820F480200860A6
:101470000846406820F4FE0048604FF41F00886072
:10148000FFF7F0FE4FF000600449086010BD000057
:10149000001002400000FFF8FFFFF6FE08ED00E03C
:1014A00010B52B48008800F0010000284ED02848D5
:1014B000008820F00100264908800220FFF74AFE3C
:1014C000244908600320FFF745FE40422249086096
:1014D0002248016822480068FFF76EF9044601F0CF
:1014E00023FC20490860204801681E480068FFF777
:1014F000B1F91E48016817480068FFF7D5F81C4984
:1015000008601C48016814480068FFF711F91A497F
:101510000860FEF7C5FE1948007819490978884225
:1015200006D040F2DC5200210846FFF70FFF09E029
:1015300000F096F9134802680F4801680C480068EB
:10154000FFF704FF0D4800780D49087010BD00003A
:10155000102C014044000020480000202000002002
:101560003C00002004000020080000203000002083
:10157000240000203400002028000020000000206B
:10158000010000202C0000204FF08040008A4FF026
:101590008040008A20F001004FF0804108827047AF
:1015A000044800880348008820F0010001490880B1
:1015B000704700001004004010B540F225511D484E
:1015C00000F08AF810B31B4800F042F9C4B21A4880
:1015D000007800F08000C8B91748007800F040009B
:1015E00060B10A2C03D000201349087020E0124893
:1015F000007840F080001049087019E00D2C06D1E9
:101600000D48007840F040000B49087010E00A488F
:10161000007800F03F0009490C5407480078401C4E
:1016200005490870084600783F2801DD0020087051
:1016300010BD0000003801405C000020A800002020
:1016400010B540F22551194800F046F860B317482C
:1016500000F0FEF81649174A1278885408460078B8
:10166000A52803D000201349087004E01148007831
:10167000401C104908700F480078032814D100203E
:101680000C4908700A4880780949497840EA0120E5
:10169000094908600846006841F6C811884203DB22
:1016A000064800680449086010BD0000004800407A
:1016B000380000203B0000203C00002020000020DB
:1016C00021B1828942F40052828104E082894DF680
:1016D000FF731A408281704770B5024600240023D0
:1016E0000025002040F66A16B14200D100BFC1F3C8
:1016F000421501F01F03012606FA03F3012D02D162
:101700009689334006E0022D02D1168A334001E06B
:10171000968A33400C12012606FA04F416883440E7
:1017200013B10CB1012000E0002070BDF0B50346FC
:10173000002400260025002040F66A17B94200D197
:1017400000BF1846C1F3421401F01F06012707FA33
:1017500006F5012C01D10C3004E0022C01D110302F
:1017600000E014301AB107682F43076002E00768F1
:10177000AF430760F0BD00002DE9F04786B0054695
:101780000E460024A24600BFA1460027B08900B142
:1017900000BF2F462C8A4CF6FF700440F0880443AB
:1017A0002C82AC894EF6F3100440B088318908438E
:1017B000718908430443AC81AC8A4FF6FF40044072
:1017C000B0890443AC8201A8FFF75AFC1F48874246
:1017D00002D1DDF810A001E0DDF80CA0A88900F42A
:1017E000004040B10AEBCA0000EB0A103168490022
:1017F000B0FBF1F807E00AEBCA0000EB0A10316811
:101800008900B0FBF1F86420B8FBF0F00401200976
:10181000642101FB1089A88900F4004040B1322006
:1018200000EBC900B0FBF1F000F00700044308E052
:10183000322000EB09106421B0FBF1F000F00F0042
:1018400004432C8106B0BDE8F08700000038014059
:1018500001468888C0F30800704700BFFEE700001B
:1018600041F6F420174909684242914202DA4142A6
:10187000144A116013490968814201DD1149086069
:10188000114909684242914202DA41420E4A11600E
:101890000D490968814201DD0B4908600B4909685F
:1018A000B1F57A7F03DA4FF47A71084A116007497B
:1018B0000968B1F5FA6F03DD4FF4FA61034A11606C
:1018C0007047000024000020280000202C00002089
:1018D000490050EAC12018BF04204A0D18BF40F04B
:1018E000010040F2FF72B2EB515F08BF40F002000E
:1018F000012808BF052070472DE9F74F144694B022
:101900000021C4E902111599079121F00045C94948
:101910008D4206DC1599C4E9000117B00020BDE82E
:10192000F08FC549DFF814A3A9423CDD0799C44EE6
:101930000029C44FC44A1599534619DD01F060F8D7
:10194000554506D0C14AC24B01F05AF8C4E900011E
:101950000AE04FF0D352BE4B01F052F832463B46FC
:1019600001F04EF8C4E9000117B00120BDE8F08F86
:1019700000F0DAFC554506D0B44AB54B00F0D4FC73
:10198000C4E900010AE04FF0D352B14B00F0CCFCA7
:1019900032463B4600F0C8FCC4E9000117B04FF0E6
:1019A000FF30BDE8F08FAB49A942159978DB21F0F3
:1019B000004183468846A84AA84B00F017FF002242
:1019C000A74B00F0B1FC00F0B7FE099000F0E3FE79
:1019D00006460F469C4A534600F008FF43465A46C7
:1019E00001F002F880468A46984A994B30463946BB
:1019F00000F0FCFE2A0D01250B924246534600F0F2
:101A0000F3FF032DC4E9000139D00B98C1F30A514B
:101A1000401A05EB45111139814230DA9148C3462D
:101A2000784400EB0510CDF80CA00C90D0E9002311
:101A30003046394600F0DAFE02460B460491069025
:101A40005846039900F0DCFF80468A4602460B4662
:101A50005846039900F0D4FF049B069A00F0D0FF8B
:101A600083460C9803913946D0E90223304600F0B2
:101A7000BDFE5A46039B00F0C3FF6D1CBDE70798EF
:101A80000028A2BF099817B0BDE8F08F616881F007
:101A900000416160099817B04042BDE8F08FFFE750
:101AA00084461598C1F31301C0F30A50A0F2F53033
:101AB0004FEA601800F01F06C6F1200013900020C6
:101AC0000690079041F4801E05206D4676B1664A67
:101AD00008EB00017A4452F8213002EB8101B34057
:101AE0004A68139922FA01F1194305E05F4908EBAE
:101AF0000002794451F82210A1FB0E27A1FB0C1320
:101B00001A449A4234BF0123002303EB070A05EB72
:101B10008003D3E901B70F448F4234BF0121002174
:101B200093448B4411B1934502D903E0934501D20C
:101B3000012100E00021C3E901B7514445F820101C
:101B4000011EA0F10100C1DC0298059F00F10050C8
:101B5000800F12900298DDE90356800000F01BFE12
:101B6000834628460D9100F02DFE6FF01D0201F016
:101B700066FACDE90E01304600F024FE6FF03D021A
:101B800001F05DFA80468A46384600F01BFE6FF091
:101B90005D0201F054FA074642465346119100F0A7
:101BA000C3FBDDE90E2300F0BFFB5A460D9B00F09E
:101BB000BBFB00250E465A4628460D9B00F020FF31
:101BC000DDE90E2300F01CFF4246534600F018FFEB
:101BD0003A46119B00F008FFDFF898A0244A5346CC
:101BE00000F004FE07468846234A244B3146284627
:101BF00000F0FCFD3A46434600F096FB0746884657
:101C00004FF0A84253463146284600F0EFFD3A46D1
:101C1000434600F089FB159A12F0004F04D0129A47
:101C200081F0004152421292C4E90001129817B0AB
:101C3000BDE8F08FFB21E93F7CD90240FB21F93F51
:101C40007370032E8A19A33B000040543163621A5B
:101C500061B4D03DFB21394183C8C96D305FE43F99
:101C60000000E03F0C210000882000006A200000F6
:101C7000182D4454FB21F93D3326A611460B113C87
:101C80002DE9F0414F1E00EBC7010446D1E90001E8
:101C900015461E4637F006020DD02A46334600F0A0
:101CA000A5FD7F1E04EBC703D3E9002300F03CFB36
:101CB00037F00602F1D1022F25D0042F13D0062FC2
:101CC00018BFBDE8F0812A46334600F08FFDD4E905
:101CD0000A2300F029FB2A46334600F087FDD4E9A9
:101CE000082300F021FB2A46334600F07FFDD4E9AB
:101CF000062300F019FB2A46334600F077FDD4E9AD
:101D0000042300F011FB2A46334600F06FFDD4E9AE
:101D1000022300F009FB2A46334600F067FDD4E9B0
:101D20000023BDE8F04100F0FFBA00002DE9F04DBE
:101D300004468CB0904821F00047164698460D4660
:101D40000991874206DA2046294600F0F5FC002872
:101D500000F0AE808948B8421CDC09980028BCBF5E
:101D600085F0004588F00048854A864B2046294684
:101D700000F03AFE04460D46324643468248834907
:101D800000F03EFE22462B4600F0CEFA0026044626
:101D90000D46B04622462B461046194600F026FD59
:101DA0008B46824602460B4600F020FD0246089014
:101DB00077480B46009106217844FFF761FFCDE993
:101DC0000310744806217844009B089AFFF758FFD7
:101DD00052465B4600F00AFDCDE9051052465B46CF
:101DE0002046294600F002FD07910090DDE903102E
:101DF000DDE9053200F098FA079B009A00F0F6FC46
:101E00003246434600F090FA52465B4600F0EEFC44
:101E10003246434600F088FA80460E465E4A5F4BE3
:101E20000799009800F0E2FC4246334600F07CFA45
:101E300082468B4622462B4600F076FA80464F4873
:101E40000E46B84214985BDC00F0A5FC07464246FB
:101E50003346059100F068FACDE901104246334659
:101E60001046194600F0C2FCDDE9013200F00CFB1F
:101E700052465B4600F0C4FD22462B4600F0B4FDFE
:101E8000012201F0DCF83A46059B00F0ADFD044666
:101E90000D460998022101EAA070C0F1010000F08E
:101EA0007AFC0CB022462B46BDE8F04D00F09EBCFB
:101EB0001498401C384320430BD01498012812D0AA
:101EC0000CB022462B46BDE8F04D0020344900F00E
:101ED000DBBA0CB025F000432246BDE8F04D0020EF
:101EE000304900F0D1BA20462946FFF7F1FC04281A
:101EF00008BF00F063F820460CB02946BDE8F08D1D
:101F0000012802BF40460CB0BDE8F08D00270B460B
:101F10003A462046294600F067FD52465B4600F0EF
:101F200063FD04460D464246334600201C4900F03E
:101F3000ABFA83463A4688463346104600F056FCD4
:101F40000022184B00F0F0F906468A4622462B463E
:101F50003846414600F04AFC3246534600F0E4F968
:101F60005A46434600F042FC0CB03A464346BDE8B0
:101F7000F04D00F0D9B900000000303E2894E53F54
:101F8000182D4454FB21E93F075C143326A6813CFD
:101F90003C1E00005E1E0000635555555555D53F4B
:101FA0000000F0BF0000F03F012201F048B800221D
:101FB00013461046114600F067BA0000024A00209E
:101FC000110701F03CB8000001FDFFFF014600BF12
:101FD000704700004FF0E021096921F004014FF043
:101FE000E0221161C21700EB5272C2F3C702074B25
:101FF0001A701946097801EB4102C2EBC1114FF684
:10200000FF7202EAC101024A1180704752000020AB
:102010005400002001460D4A12884A434FF0E02345
:102020005A6100229A6101221A6100BF4FF0E0223A
:10203000106900F001021AB100F48032002AF5D0D4
:1020400000224FF0E0231A619A617047540000208B
:102050000920FFF7ABF9FEF78CFD4820FFF7BAFF28
:102060000220FEF7C1FBFEF733FEFEF7D5FBFEF7BD
:102070003BF94FF4E13000F011F901E000F028F8ED
:102080000C4800780028F9D1FEF758F9FEF7B8F9A6
:10209000002141F61F40FEF7F3FC472142F20F708A
:1020A000FFF782F84FF4E13000F0B6F801E000F0FD
:1020B0000FF8FCE74C00002010B50246012000E0BC
:1020C00050430B1EA1F10104E1B2F9D110BD000093
:1020D00008B526A200210846FEF762FF0C20042363
:1020E000009026480A2102682820FEF70FFF24A24C
:1020F0000A215020FEF754FF22A214210020FEF7EF
:102100004FFF244800681D490968884208D10C2007
:10211000042300221E2100902820FEF7F7FE0DE088
:102120000C20042300901B481E2102682820FEF783
:10213000EDFE13A21E215020FEF732FF16A232211F
:102140000020FEF72DFF16480078012805D115A2C2
:1021500032210846FEF724FF04E014A2322108468B
:10216000FEF71EFFFEF758FE08BD000054617267BF
:1021700065742044697374616E63650020000020FB
:102180006D6D00004E6F772044697374616E6365F6
:10219000000000003C0000204D6F64653A00000024
:1021A0004C0000204D65617375726500447269765C
:1021B000696E670010B5164B21F00042012486B00D
:1021C0009A4203DC0022134600941CE0114B9A4211
:1021D00008D140B94FF00100FEF722F8FFF7E7FE03
:1021E00006B010BD03DBFFF7DFFE06B010BD02AA8C
:1021F000FFF782FB00F00100A4EB40000DF1080C9A
:1022000000909CE80F00FFF791FD06B010BD0000A4
:10221000FB21E93F0000F07F10B586B004460121A4
:1022200044F20500FEF71CFF4FF40070ADF81400F7
:1022300003208DF8160018208DF8170005A9154801
:10224000FEF7A4F94FF48060ADF8140004208DF877
:10225000170005A90F48FEF799F901940020ADF881
:102260000800ADF80A00ADF80C00ADF810000C2025
:10227000ADF80E0001A90848FFF77EFA012240F2EE
:1022800025510548FFF752FA01210348FFF718FAD4
:1022900006B010BD000801400038014010B586B0FE
:1022A000044601210820FEF7DBFE01218804FEF729
:1022B000C7FE4FF48060ADF8140003208DF81600BF
:1022C00018208DF8170005A91548FEF75FF94FF49F
:1022D0000060ADF8140004208DF8170005A910481F
:1022E000FEF754F901940020ADF80800ADF80A009B
:1022F000ADF80C00ADF810000C20ADF80E0001A9EF
:102300000848FFF739FA012240F225510548FFF746
:102310000DFA01210348FFF7D3F906B010BD000004
:10232000000C01400048004010B591EA030F48BF7F
:1023300083F0004300F16C83841A71EB030C05D227
:10234000121943EB0C03001B61EB0C01DFF824E1D5
:102350004FEA1154A4EB135C1EEA430F18BF9EEA28
:10236000445F73D023EA0E03DCF1200E21EA04510E
:1023700043F4801332D322FA0CFE10EB0E0023FA42
:102380000CFE41EB0E01CCF1200E03FA0EFE10EB19
:102390000E0051F10001B1F5801FCCF1200E32D2B8
:1023A00001EB045112FA0EF2BDE8104058BF70471D
:1023B000401C38BF5FEA420218BF7047002814BFB4
:1023C00020F0010041F100014FEA410313F5001F25
:1023D00038BF7047A1F1C04100F000BB012A43EBB8
:1023E0000302ACF1200CDCF11F0E32BF4FF0000EE7
:1023F00023FA0CF310EB030041EB0451B4EB115F33
:10240000D0D0A1EB045101F5801149085FEA3000FA
:1024100001EB04510ED350F1000038BF12FA0EFE4A
:1024200008D1BDE81040C9E7401C38BF5FEA42024E
:10243000CAD1C3E7BDE810404FEA410313F5001FBE
:1024400038BF7047A1F1C04100F0C8BA9EEA445FAE
:1024500008D011EA5E0FBDE8104004BF01F0004152
:1024600000207047BDE8104070B500F069FA00BF69
:1024700064FBBE3E0000E0FF02494FF0000000F0A8
:10248000ACBD00BF0000F87F2DE9C04130B4DFF8DB
:10249000A0C23CEA111418BF3CEA131400F0EC800F
:1024A00081EA03051CEA111444EAD57418BF1CEA3A
:1024B000131500F0C780A4EB05044FF0004545EA72
:1024C000C12145EAC32341EA505143EA525304F182
:1024D0007F74994204F500344FEAC0204FEAC222CB
:1024E00008BF904200F09C804FEA13650FF240163F
:1024F000765D4FEA134506FB05F7C7F1807706FBCB
:1025000007F74FEAD737A7FB03687642C8F580384C
:10251000A7FB06CE38BFA8F1010807FB08E64FF07D
:10252000000EA6FB028CE6FB03CEDCF1000CCEF124
:10253000004E38BFAEF1010EA6FB0C584FF000075D
:102540004FF00005E6FB0E87A1FB08C6A0FB07CEF7
:1025500016EB0E0645F10005E1FB076515F1E04EAF
:102560007EBFA4F580345FEA46066D4116F1800710
:1025700045F100054FEA17274FEA066647EA056767
:10258000A6F1DE46B6F1805F4FEA15251FD9384621
:1025900024F0010C05EBC471BCF1FE6F01EB0C11D2
:1025A00002D8F0BCBDE8008124425CBF01F5801E6A
:1025B0009EEAC47F02D4F0BCBDE80081244238D436
:1025C000F0BCA1F1C041BDE8004100F007BA4FEAFC
:1025D000D22242EA43524FEAD323A7FB02864FEAB4
:1025E000D02040EA415007FB03661EEA0E0F4FEA77
:1025F000D12105FB026658BFA6EB0056B6EB00568C
:102600004FEA520E4EEAC37E18EB0E0E56EB530EF7
:10261000BDD518EB02085E417F1C55F10005B6E7F9
:102620004FF480154FF000074FF000064FF0000800
:10263000ADE7F0BC4FF0000001F1C04101F00041F6
:10264000BDE8008111EA0C1F0CEA131500D00CE064
:1026500013EA0C1F00F025804FF00000F0BC81EA67
:10266000030101F00041BDE80081F0BCBDE800417C
:1026700081EA030100F0B2B9F0BCBDE8004170B5D9
:1026800000F05EF9097EFC3E00F007B881EA030124
:102690004FF0000001F00041704781EA030100F0B3
:1026A0009DB9F0BCBDE800414FF0000021497047E2
:1026B000FFFDFBF9F7F5F4F2F0EEEDEBE9E8E6E407
:1026C000E3E1E0DEDDDBDAD8D7D5D4D3D1D0CFCD8E
:1026D000CCCBCAC8C7C6C5C4C2C1C0BFBEBDBCBBC7
:1026E000BAB9B8B7B6B5B4B3B2B1B0AFAEADACABC2
:1026F000AAA9A8A8A7A6A5A4A3A3A2A1A09F9F9E9C
:102700009D9C9C9B9A99999897979695959493934D
:10271000929191908F8F8E8E8D8C8C8B8B8A8989E4
:102720008888878786858584848383828281818067
:102730000000FF070000F87F4FEA41034FEA5353C0
:10274000A3F58063D3F11E03C8BFD3F1210C0CDDC8
:102750004FF0004242EAC12242EA505232FA03FCF0
:102760008CEAE17CACEBE1707047102BC4BF002019
:10277000704703F5787CBCF1FF3F04D06FF0004256
:1027800082EA2100704770B500F0DAF8499224809F
:1027900000207047F2E710F0004248BF4042B0FA14
:1027A00080F310FA03F10AD0C3F11D0303F580632F
:1027B0004FEA415002EB035202EBD12170474FF038
:1027C00000007047B0FA80F310FA03F10AD0C3F1A9
:1027D0001D0303F580634FEA41504FEA035202EBB9
:1027E000D12170474FF0000070470000DFF848C16A
:1027F00070B51CEA111E1EBF1CEA13159EEA0C0FD1
:1028000095EA0C0F00F06F8081EA030423EA4C1371
:102810004EEAD47E21EA4C1141F4801143F4801336
:10282000AE44A1FB024CA0FB0365AEF17F7E3619DE
:1028300055EB0C05A1FB034C4CF10003A0FB021C63
:1028400016EB0C06654153F10003094218BF46F030
:10285000010613F4007F0BD14FEA03314FEA053034
:10286000340341EA155140EA16506FF003020AE0C2
:102870004FEAC3214FEAC520F40241EA555140EA2C
:1028800056506FF0020202EB2E4201EB025585EA30
:10289000CE710AD05FEA440C18BF24F0004450F116
:1028A000000041F1000120EAD47040F2FE7C624554
:1028B00000D270BDA84214BF4FF080444FF0404496
:1028C000002E08BF0024BEF1806FA8BFA1F1C04157
:1028D000BDE8704080F282804FF0000001F1C041FD
:1028E00001F0004170479EEA0C0F0CEA131518BF67
:1028F00095EA0C0F06D04FF0000081EA030E0EF0AF
:10290000004170BD00F01CF88900013E00F007B8DE
:1029100000F009B84FEA430C5FEA5C5C08D081EA3A
:10292000030100F05BB84FEA410C5FEA5C5CF6D152
:102930004FF00000014970470000FF070000F87FDA
:102940000EF1020E2EF0030E5EF8046B364205D433
:10295000012A43EB030515F5001F12D8012841EBAE
:10296000010C1CF5001F0CD80ED14FEAD17C15F5D7
:10297000001F0CEB4C0C0CF1020C08BF4CEBD37C91
:1029800004E04FF0080C01E04FEAD37C0CEB4C055F
:1029900026FA05F606F00706B6F1040C06D20EEB91
:1029A000860CBDE870404CF0010C6047DFE80CF08D
:1029B000090B02024FF000414FF00000A1F5002189
:1029C00070BD19461046012851EB010418BFD4F51B
:1029D000001484BF002001F0004170BD0808A0F57C
:1029E00000114FEA3101704791EA030F10B581F0F1
:1029F00000413FF5A1AC83F0004300F009B80000AE
:102A000010B591EA030F48BF83F000433FF594AC43
:102A1000841A71EB030C07D212198CF0004C43EBB3
:102A20000C03001B61EB0C01DFF8A4E14FEA115429
:102A3000A4EB135C1EEA430F18BF9EEA445F00F04C
:102A4000B08023EA6E03524221EA0451C3EB6E03C5
:102A500038BF5B1EDCF1200E25D322FA0CFE10EBF2
:102A60000E0043FA0CFE41EB0E01CCF1200E03FAEE
:102A70000EFE10EB0E0051F10001CCF1200E29D416
:102A800012FA0EF201EB0451BDE8104058BF704736
:102A9000401C1CBFB2F1004F704700280CBF491CFE
:102AA00020F00100704712EB020E43EB030218BF47
:102AB0004FF0010E4EEA4202ACF1200CDCF11E0E8A
:102AC00054D943FA0CFE10EB0E0051F1FF31CCF15A
:102AD0001E0ED5D50EF1010E12FA0EFE404141EB4D
:102AE000010101EB445C5FEA5C5C10D910EBDE7025
:102AF00001EB045138BFBEF1004FBDE8104018BFD4
:102B0000704700280CBF491C20F00100704730D2EC
:102B10004FEAD42C11F5001124F400641BD0B1FA53
:102B200081F20B3AA41AA41ED2F12003914030FA8C
:102B300003F31943904001EBCC71002C01EB0451DD
:102B4000BDE81040A8BF704701F1C0414FF0000040
:102B500001F000417047B0FA80F310FA03F100D1A0
:102B600010BDE41A173C4805C90AE4E701EB04511B
:102B700010BD491001EB0451BDE810404FEA300090
:102B800002E04FF0000170474A0008BF0042F8D051
:102B9000B2F5001F28BF704701F000414FF0000060
:102BA00070479EEA445F07D011EA5E0FBDE810400F
:102BB00004BF002100207047BDE8104070B5FFF74A
:102BC000BFFE00BF40DFF63E83F000411046704775
:102BD0000000E0FF43004FEAD30C4FEA3C0C4340B7
:102BE0001FBF40070CF1605113F0FE4F70471CF0FF
:102BF000006F03D100200CF0004170470CF000433F
:102C000043EA507010B540EACC0000F026F900BF4E
:102C1000000000924FEA0001FFF7E0BE4FF00041D4
:102C20004FF00000A1F500217047000090EA010F6D
:102C300048BF81F0004100F16281421A3CBF801A16
:102C400089184FEAD0524FF07F4C1CEA410FA2EB9B
:102C5000D15318BF9CEA026F00F03B804FF0004C4C
:102C60004CEA00204CEA012121FA03FC10EB0C0C89
:102C70001ED202F1FF325FEA1C2040EBC25038BF87
:102C800070471CF07F0F4FEA400C18BFBCF17F4F1C
:102C900038BF7047C3F12003994008BF20F00100FE
:102CA000BCF17F4F38BF7047A0F1C04000F01BB9A6
:102CB0004FEA3C00000A40EBC25028BF1CF0FF0F57
:102CC0004FEA400CE6D018BFBCF17F4F38BF7047C9
:102CD000EAE79CEA026F05D010EA5C0F08BF00F03B
:102CE0000040704710B500F0B8F800BF64FBBE3E6E
:102CF00041000B0ED3F19E0208D950F400034FEAB5
:102D0000032323FA02F048BF4042704710B500F099
:102D1000A4F800BF49922480002070476FF0004261
:102D200082EA20007047000010F0004148BF404296
:102D3000B0FA80F310FA03F2C3F19D030BD051EA0D
:102D4000C35101EB1220530638BF704700F1010058
:102D500008BF20F0010070474FF47F0C1CEAD0122E
:102D60001EBF1CEAD11392EA0C0F93EA0C0F00F07D
:102D7000478090EA010F48BF42F480724FF0004C48
:102D80004CEA00204CEA012102EB0302A0FB0113F4
:102D9000A2F50002002918BF43F001035B0028BF21
:102DA0004FEA330342EB22425FEA132C4CEBC25052
:102DB0002EBFBCEB436FB2F57C0F70474FEA036C3C
:102DC000BCF1004F08BF20F00100B2F57C0F38BF06
:102DD00070470BD582F0FF0212F5803FC8BF7047E5
:102DE00000F1C040D8BF00F00040704700F5000C73
:102DF0005FEA4C0C48BF7047B0F1C04000F073B8B8
:102E000090EA010F0CEAD11348BF42F48072624588
:102E100038BF634504D280EA010000F000407047EB
:102E200010B500F01AF800BF8900013E00F007B8A5
:102E300000F009B85FEA410C5FEA1C6C08D080EA38
:102E4000010000F050B85FEA400C5FEA1C6CF6D15C
:102E50004FF00040A0F5800070470EF1020E2EF0FA
:102E6000030E5EF8044B244204D44FEA4102B2F14F
:102E70007F4F11D84FEA4003B3F17F4F0CD80ED1EA
:102E80004FEAD07CB2F17F4F0CEB4C0C0CF1020CF2
:102E900008BF4CEBD17C04E04FF0080C01E04FEA96
:102EA000D17C0CEB4C0324FA03F404F00704B4F1D6
:102EB000040C06D20EEB840CBDE810404CF0010C63
:102EC0006047DFE80CF0070802024FF00040A0F571
:102ED000800010BD0846420018BFD2F1807288BF42
:102EE00000F0004010BDFF2141EAD050C0057047FE
:102EF00090EA010F48BF81F000413FF59EAE421AB3
:102F000004D882F00042A0EB020011444FEAD052F4
:102F10004FF07F4C1CEA410FA2EBD15318BF9CEA43
:102F2000026F4AD04FF0004C4CEA00204CEA0121DD
:102F300021FA03FCB0EB0C0C0FD412F0FE0F36D0CC
:102F40005FEA4C001DD5001240EBC25038BF7047FD
:102F50001CF03F0F18BF70470BE0A2F101025FEABF
:102F60001C2040EBC25038BF70471CF07F0F18BFC9
:102F70007047C3F12003994014BF401E20F00100A8
:102F8000704780084FEA122308BF7047B0FA80FCF0
:102F9000A2EB0C02CCF1280C60FA0CF093EA122F91
:102FA00004BF00EBC25070474FEAC3707047130A6A
:102FB0005FEADC1008BF7047F6E79CEA026F04D0B6
:102FC00010EA5C0F08BF0020704710B5FFF745FFFF
:102FD00040DFF63E81F0004070470CF00F03092BF4
:102FE00008BF082000F059800A2B0BD0082B18BF0F
:102FF000704708BF1CF0400F0AD04FF000004FF0A0
:10300000000170471CF0400F18BF4FF000407047A0
:103010001CF0100F08D020F0704300F07F4242EA0D
:10302000D3014FEA4370704700F0604021F07F42C7
:1030300042EA000201F07F4040EA727070474FF0B0
:10304000FF0C4CF4E06C1CEA11531CBF9CEA030C0F
:103050009445C2BFDA4201EB02517047002B0DD0FC
:10306000BCF1000F0FD0002A01F00041A4BF41F0D5
:10307000E04141F07F614FF00000704701F00041F6
:103080004FF00000704750EA01334FF09B0C18BF1F
:103090004CF0806C7FF4F0A970471CF4801F11D0B5
:1030A0001CF4E02F03D06FEACC31490070474FF099
:1030B0004050EFF3008222F0704242EA000282F3B5
:1030C000008870474FF000007047000000000000CB
:1030D000000000000000000000003F400000000071
:1030E00000000000300040003000400000000900F7
:1030F0000BC03D000BC03D00090018C024407FE01C
:10310000224031800000180024C01B000D80324096
:10311000018003801C4027401C80074000401000B5
:10312000600000000000000000000000000000003F
:103130001F80204040200000402020401F800000D1
:103140000000090006001F800600090000000400BE
:1031500004003F8004000400000000100060000034
:10316000000000000000040004000400040004004B
:1031700000000000004000000000000000000020EF
:1031800001C006003800400000001F8020402040A1
:1031900020401F800000000010403FC000400000A1
:1031A000000018C021402240244018400000108038
:1031B0002040244024401B80000002000D0011002C
:1031C0003FC0014000003C80244024402440238034
:1031D00000001F8024402440344003800000300061
:1031E000200027C03800200000001B80244024401D
:1031F00024401B8000001C0022C0224022401F806F
:103200000000000000000840000000000000000076
:1032100000000460000000000000000004000A003C
:103220001100208040400900090009000900090040
:10323000000000004040208011000A000400180037
:10324000200023402400180000001F802040274059
:1032500029401F400000004007C039000F0001C096
:10326000004020403FC0244024401B8000001F80BD
:103270002040204020403080000020403FC02040BF
:1032800020401F80000020403FC024402E4030C01E
:10329000000020403FC024402E00300000000F00FE
:1032A0001080204022403380020020403FC00400B4
:1032B00004003FC02040204020403FC0204020402C
:1032C00000000060202020203FC02000200020407F
:1032D0003FC024400B0030C0204020403FC0204071
:1032E0000040004000C03FC03C0003C03C003FC065
:1032F000000020403FC00C4023003FC020001F8042
:103300002040204020401F80000020403FC024403B
:103310002400180000001F802140214020E01FA051
:10332000000020403FC02440260019C0004018C0C3
:1033300024402440224031800000300020403FC023
:1033400020403000000020003F80004000403F80CF
:10335000200020003E0001C0070038002000380097
:1033600007C03C0007C038000000204039C00600FC
:1033700039C0204000002000384007C038402000FD
:103380000000304021C02640384020C0000000002E
:1033900000007FE0402040200000000070000C0092
:1033A0000380004000000000402040207FE000003B
:1033B000000000002000400020000000000000107D
:1033C000001000100010001000100000000040006D
:1033D000000000000000000002800540054003C01E
:1033E000004020003FC00440044003800000000073
:1033F00003800440044006400000000003800440B5
:1034000024403FC0004000000380054005400340C9
:103410000000000004401FC02440244020000000A1
:1034200002E0055005500650042020403FC00440F3
:10343000040003C000400000044027C0004000001A
:10344000000000100010041027E0000000002040E1
:103450003FC00140070004C00440204020403FC05E
:1034600000400040000007C0040007C0040003C083
:103470000000044007C00440040003C000400000F6
:1034800003800440044003800000041007F004504F
:10349000044003800000000003800440045007F053
:1034A0000010044007C002400400040000000000B7
:1034B00006400540054004C00000000004001F80D5
:1034C000044000400000040007800040044007C0A2
:1034D00000400400070004C001800600040006004C
:1034E00001C0070001C006000000044006C0010042
:1034F00006C0044000000410071004E0018006002C
:1035000004000000044005C0064004400000000024
:10351000000004007BE040200000000000000000EC
:10352000FFF000000000000040207BE004000000ED
:10353000000040008000400020002000400000000B
:10354000000000000000000000000000000000007B
:10355000000000001FCC000C000000000000000074
:103560000800300060000800300060000000022009
:1035700003FC1E20022003FC1E200220000000008D
:103580000E1811043FFF10840C78000000000F009B
:1035900010840F3800C00778188400780000007885
:1035A0000F8410C411240E9800E400840008080061
:1035B0006800700000000000000000000000000033
:1035C0000000000007E0181820044002000000007E
:1035D00040022004181807E000000000000002402C
:1035E000024001800FF00180024002400000008094
:1035F000008000800FF80080008000800000000143
:10360000000D000E0000000000000000000000009F
:10361000008000800080008000800080008000002A
:10362000000C000C00000000000000000000000082
:10363000000600180060018006001800200000004D
:1036400007F0080810041004080807F00000000044
:10365000080408041FFC000400040000000000002F
:103660000E0C10141024104411840E0C00000000E5
:103670000C1810041104110412880C7000000000D2
:1036800000E00320042408241FFC002400000000A4
:103690001F9810841104110410881070000000009D
:1036A00007F0088811041104188800700000000059
:1036B0001C00100010FC13001C0010000000000093
:1036C0000E3811441084108411440E38000000009C
:1036D0000700088C10441044088807F00000000020
:1036E00000000000030C030C0000000000000000BC
:1036F00000000001010600000000000000000000C2
:10370000008001400220041008081004000002207C
:1037100002200220022002200220022000000000DD
:10372000100408080410022001400080000000007E
:103730000E001200100C106C10800F00000003E04F
:103740000C1813E4142417C4082807D00000000440
:10375000003C03C41C40074000E4001C00041004AB
:103760001FFC1104110411040E880070000003E016
:103770000C1810041004100410081C100000100491
:103780001FFC100410041004080807F000001004C7
:103790001FFC1104110417C41004081800001004C1
:1037A0001FFC1104110017C010000800000003E006
:1037B0000C181004100410441C7800400000100481
:1037C0001FFC10840080008010841FFC1004000087
:1037D000100410041FFC100410040000000000037B
:1037E0000001100110011FFE100010000000100465
:1037F0001FFC110403801464181C10040000100442
:103800001FFC1004000400040004000C000010045D
:103810001FFC1F0000FC1F001FFC10040000100410
:103820001FFC0C04030000E010181FFC100007F040
:103830000808100410041004080807F00000100421
:103840001FFC10841080108010800F00000007F013
:10385000081810241024101C080A07F20000100495
:103860001FFC1104110011C011300E0C00040000E7
:103870000E1C11041084108410441C380000180021
:10388000100010041FFC10041000180000001000AD
:103890001FF810040004000410041FF810001000AA
:1038A0001E0011E0001C007013801C0010001FC0DF
:1038B000103C00E01F0000E0103C1FC0000010049E
:1038C000180C163401C001C01634180C1004100076
:1038D0001C00130400FC13041C001000000008046A
:1038E000101C1064108413041C0410180000000045
:1038F000000000007FFE4002400240020000000085
:1039000030000C0003800060001C00030000000079
:103910004002400240027FFE000000000000000064
:103920000000200040004000400020000000000196
:103930000001000100010001000100010001000080
:1039400040004000200000000000000000000000D7
:103950000098012401440144014400FC00041000CB
:103960001FFC0088010401040088007000000000B2
:1039700000700088010401040104008800000000B8
:10398000007000880104010411081FFC00040000FD
:1039900000F8014401440144014400C80000000053
:1039A000010401040FFC11041104110018000000AF
:1039B00000D601290129012901C9010600001004CE
:1039C0001FFC008401000100010400FC0004000051
:1039D0000104190419FC00040004000000000000A8
:1039E000000300010101190119FE0000000010048C
:1039F0001FFC0024004001B4010C01040000000081
:103A0000100410041FFC0004000400000000010466
:103A100001FC0104010001FC0104010000FC01049F
:103A200001FC008401000100010400FC000400000E
:103A300000F8010401040104010400F80000010180
:103A400001FF0085010401040088007000000000EF
:103A50000070008801040104010501FF0001010458
:103A6000010401FC00840104010001800000000049
:103A700000CC01240124012401240198000000004D
:103A80000100010007F8010401040000000001002A
:103A900001F8000400040004010801FC0004010016
:103AA00001800170000C001001600180010001F034
:103AB000010C003001C00030010C01F001000000D9
:103AC0000104018C00740170018C010400000101EB
:103AD00001810171000E00180160018001000000E9
:103AE0000184010C013401440184010C0000000038
:103AF00000000000000001003EFC40024002000007
:103B0000000000000000FFFF0000000000000000B7
:103B1000400240023EFC01000000000000000000E6
:103B20006000800080004000400020002000000075
:103B300000004054FB21F93F3163621A61B4D03D6B
:103B40000000601A61B4D03D7370032E8A19A33B44
:103B50000000002E8A19A33BC14920259A837B3996
:103B600000000000000000006E83F9A22915444EF9
:103B7000D15727FCC0DD34F5999562DB4190433C79
:103B8000AB6351FE61C5BBDE3A6E24B7E0D24D4255
:103B9000EA2E49061C92D1091CEB1DFE3EA729B155
:103BA000F53582E88444BB2E26709CE9417E5FB4E3
:103BB00039D69139F43953838B5F849C3B28F9BD06
:103BC000FF97F81F0F9805DE8B112FEF1F6D0A5A14
:103BD000CF7E366DB709CB27663F464F2DEA5F9EF5
:103BE000C7BA27757BF1E5EBF739073DEA92528AB0
:103BF000B15FFB6B085D8D1F7AFE10111111C13F83
:103C000037D60684F464963F280356C9226D6D3F6B
:103C10000165F2F2D844433FA69237A0887E143F54
:103C2000735360DBCB75F3BEFE41B31BBAA1AB3F50
:103C300093846EE9E326823F1583E0FEC8DB573F9D
:103C400068108D1AF726303FE9A7F0320FB8123FFF
:103C5000D47ABF74702AFB3E783C00080000002034
:103C6000A80000006C010008203D0008A80000200A
:103C7000A00A000088010008000000000000000009
:103C80000000000000004041000040419A99193EA8
:103C90000000803F0000803FF401000000000000B1
:103CA0000000000000000000000000000000000014
:103CB00000000000E8030000000000000000000019
:103CC00000000000010000000000000000000000F3
:103CD00000000000000000000001020304010203D4
:103CE000040607080902040608000000000000009E
:103CF00000000000000000000000000000000000C4
:103D000000000000000000000000000000000000B3
:103D100000000000000000000000000000000000A3
:04000005080001CD21
:00000001FF
